:020000040800F2
:1000000070070024AD020008D1560008B94F00085F
:100010008156000819090008D16800080000000096
:10002000000000000000000000000000615A00080D
:10003000050E0008000000001D5800083D5C000887
:10004000C7020008C7020008C7020008C70200086C
:10005000C7020008C7020008C7020008C70200085C
:10006000C7020008C7020008C7020008C10900084B
:10007000C7020008C7020008C7020008C70200083C
:10008000C7020008C7020008C7020008C70200082C
:10009000C7020008C7020008C7020008C70200081C
:1000A000C7020008C7020008C7020008C70200080C
:1000B000C7020008C7020008C7020008C7020008FC
:1000C000C7020008C7020008C7020008C7020008EC
:1000D000C7020008C7020008C7020008C7020008DC
:1000E000C7020008C702000800000000C70200089D
:1000F000C7020008C7020008C7020008C7020008BC
:10010000C7020008C7020008C7020008C7020008AB
:10011000C7020008C7020008C7020008C70200089B
:10012000C7020008C7020008C7020008C70200088B
:10013000C7020008C7020008C7020008C70200087B
:1001400000000000000000000000000000000000AF
:10015000C7020008C7020008C7020008C70200085B
:10016000C7020008C7020008C7020008C70200084B
:10017000C7020008C7020008C7020008C70200083B
:10018000C7020008C7020008C7020008C70200082B
:10019000C7020008C7020008C7020008C70200081B
:1001A000C7020008C7020008C7020008C70200080B
:1001B000C7020008C7020008C7020008C7020008FB
:1001C000C7020008C7020008C7020008C7020008EB
:1001D000C7020008C7020008C7020008C7020008DB
:1001E000C7020008C7020008C7020008C7020008CB
:1001F000C7020008C7020008C7020008C7020008BB
:10020000C7020008C7020008C7020008C7020008AA
:10021000C7020008C7020008C7020008C70200089A
:10022000C7020008C7020008C7020008000000005B
:10023000C7020008C702000800000000C70200084B
:10024000C7020008C7020008C7020008C70200086A
:10025000C7020008C7020008C7020008C70200085A
:10026000C7020008C7020008C7020008C70200084A
:10027000C7020008C7020008C7020008000000000B
:10028000C7020008C7020008C702000800000000FB
:1002900000000000C7020008DFF80CD000F0AEF943
:1002A00000480047D56E00087007002406488047C4
:1002B00006480047FEE7FEE7FEE7FEE7FEE7FEE74B
:1002C000FEE7FEE7FEE7FEE71D5D00089902000875
:1002D0002DE9F05F0546002092469B46884606467B
:1002E000814640241BE0284641464746224600F00E
:1002F00014F953465A46C01A914110D31146184674
:10030000224600F0FBF82D1A67EB01084F46224603
:100310000120002100F0F2F817EB00094E41201EE9
:10032000A4F10104DFDC484631462A464346BDE8D5
:10033000F09FD2B201E000F8012B491EFBD27047BA
:100340000022F6E710B513460A4604461946FFF7A1
:10035000F0FF204610BDF0B480EA0102D40F420045
:10036000B2EB410F02D20246084611464A0042D083
:10037000C30DDDB2C1F3C752AD1A202D35DAC1F37A
:10038000160141F4000204B15242C5F1200602FAFE
:1003900006F12A411044B3EBD05F23D0C4B1012D44
:1003A000A0EBC35009DCF0BC4FF0004202EAC3529C
:1003B000DBB200F5000000F0C9B8400000F1807029
:1003C00000EBC350A0F1807040EAD170490009E011
:1003D000490841EAC071A0EBC35000F50000400895
:1003E00000EBC350F0BC00F0A8B86142012202EB60
:1003F0004101001BF6E7F0BC704781F00041AAE71D
:1004000080F00040A7E780EA010210B502F0004347
:10041000400022D04A001FD0010E01EB1261C0F350
:100420005600C2F3560240F4000042F40002A0FB62
:10043000022000047F39140400D0401C50EA12400E
:1004400001D44000491EC2B20C0604EBD010401C7F
:100450004008802A02D003E0002010BD20F00100F7
:10046000002900DA0020184310BD002801DBC0F18C
:100470000040002901DBC1F10041814201D201208D
:10048000704700207047C10F80EAE0700844CA0737
:100490009623002100F05AB896230022114600F05E
:1004A00055B800F0004220F00040C10DC0F3160026
:1004B00040F400007F2901DA00207047962903DC10
:1004C000C1F19601C84001E096398840002AF4D075
:1004D0004042704720F00040C10DC0F3160040F4C8
:1004E00000007F2901DA00207047962903DCC1F162
:1004F0009601C8407047963988407047202A04DB2F
:10050000203A00FA02F1002070479140C2F1200326
:1005100020FA03F3194390407047202A04DB203A65
:1005200021FA02F00021704721FA02F3D040C2F113
:10053000200291400843194670470029A8BF704720
:10054000401C490008BF20F00100704710B4B0FA09
:1005500080FC00FA0CF050EA010404BF10BC7047A4
:1005600049B1CCF1200421FA04F411FA0CF118BFBE
:10057000012121430843A3EB0C01CB1D4FEA00618D
:100580004FEA102042BF002010BC704700EBC35060
:1005900010440029A4BF10BC7047401C490008BF8C
:1005A00020F0010010BC7047F0B400F0004221F0D0
:1005B000004120F00040CE0DC30DC1F3160141F4FF
:1005C0000001C0F316004C42154640F40000761EB0
:1005D00009E010EB440002D582F00042404288421C
:1005E000F7D840005B1EB342F9DA18B1F0BC002125
:1005F000FFF7ACBF2846F0BC70470000064C074D23
:1006000006E0E06840F0010394E8070098471034E2
:10061000AC42F6D3FFF744FE7078000890780008EB
:1006200070B54FF68311C3F62261FFF7ECFE044666
:10063000FFF737FF0546002120460026FFF715FF8C
:10064000002818BF013D2846FFF71DFF0146204640
:10065000FFF7D3FE4FF08841FFF7D5FE0446FFF7C2
:1006600039FF05464FF044412046FFF774FEB6EBD4
:10067000552F064614BF002526462846FFF70CFFD7
:1006800001463046FFF7B9FE47F26C01C0F60001A3
:1006900001EB850251F82540054656684FF07E5023
:1006A0002946FFF7AAFE2146FFF7ADFE044628467D
:1006B0003146FFF7A8FE01462046FFF74CFE70BD0D
:1006C00070B53A4905460068884202D0384A9042DF
:1006D00002D1D1F8080302E03648D0F8080310F43C
:1006E000403F11D003F044FD04466868B0F5803FF8
:1006F00006D0B0F5003F03D0B0F5403F27D101E070
:10070000000C18E0A40822E000214FF4002002F0C1
:10071000C7FD044668688103890B18D181140C2930
:1007200015D2DFE801F0140606060606060B0D0FCB
:100730001113800C4000B4FBF0F408E0240906E03B
:10074000640904E0A40902E0E40900E0240A02F0DC
:10075000D9F841F20301884208D817488442286832
:10076000816813D821F48071816070BD13496008DD
:10077000884204D82868816821F44071F4E7104960
:10078000884206D82868816821F4407141F480715C
:10079000EAE70C4988422868816804D821F440714E
:1007A00041F40071E0E741F44071DDE700200240D0
:1007B0000021024000600258002D3101105E5F00F0
:1007C00020BCBE0040787D0110B5846B616D11F0D6
:1007D000500F06D0616DC90625D5204600F0AAFE4F
:1007E00010BD606D40F40070606520680168090705
:1007F00007D504F069FD90B12068C068800403D576
:100800000DE0C06880070AD1606D20F480706065DB
:10081000606DC00403D4606D40F001006065204647
:1008200000F086FE10BDE16CC96CBDE810400847C1
:1008300010B5806B416D41F040014165816D41F023
:100840000401816500F076FE10BD10B5806B00F0EC
:1008500070FE10BD70B504460068816811F0010F8C
:1008600040D18168204A11422DD18168D543294069
:10087000491C816002F04CF81C49064620681C4B5C
:10088000884201D0984201D11A4A00E01A4A92687F
:10089000984202F01F0200D0014681421DD0E2B111
:1008A00020E0816811F0010F03D181682940491CC3
:1008B000816002F02DF8801B02280ED920680068A4
:1008C000C043C00709D0606D40F010006065A06DA6
:1008D00040F00100A065012070BD20680168C94397
:1008E000C907DED1002070BD3F000080002002401B
:1008F0000021024000230240006302580EB532235B
:100900008DE80E000123024602486C2102F0BCF87B
:100910000EBD000038020024FEE7000010B51748A5
:10092000B0EE080A2DED028BDFED128A9FED128AE0
:10093000B0EE681AF0EE480A05F094F840F6B830C8
:1009400001F0B2FE0D4806F0A7FA0D48B0EE681AA5
:10095000F0EE480A80ED020A0848B0EE480A05F0B9
:1009600081F8BDEC028B4FF4FA70BDE8104001F045
:100970009BBE0000E4CB964000000000E400002491
:100980003000002410B500F03FFA0B48B0EE000A2A
:10099000F8EE000A80ED020AC0ED030AC0ED040A79
:1009A0009FED041ADFED051A80ED050A80EC021AAE
:1009B00010BD00000AD7233C040000240000484278
:1009C000014800F0CDBF0000C0010024294A0168A1
:1009D00091423AD0274A1832914236D0254A3032D5
:1009E000914232D0234A483291422ED0214A60327D
:1009F00091422AD01F4A7832914226D01D4A903225
:100A0000914222D01B4AA83291421ED01A4A9142EA
:100A10001BD0194A1832914217D0174A30329142EE
:100A200013D0154A483291420FD0134A6032914296
:100A30000BD0114A7832914207D00F4A903291423E
:100A400003D00D4AA832914211D1CAB21823103AEC
:100A5000B2FBF3F26FF30901032A02F00703074A1E
:100A6000D25CC26500D9091D81650846704721F036
:100A7000FF01F9E710000240100402400C7000086A
:100A800030B5224A012301689142CAB21BD01F4CE3
:100A90001434A14217D01D4C2834A14213D01B4C52
:100AA0003C34A1420FD0194C5034A1420BD0174C0A
:100AB0006434A14207D0154C7834A14203D0134CC2
:100AC0008C34A1420CD11421114C083AB2FBF1F143
:100AD0000F4A803201F01F0504EB8101AB4010E0AA
:100AE0000C4D1824103A0D44B2FBF4F1A82D00D897
:100AF0000831094A01F01F0402EB8101064AA340B4
:100B00008032603080E80E0030BD0000085402588A
:100B100000580258F0FBFDBF0008024010B50279F2
:100B2000531E072B2DD8174C0168A1421BD0154C22
:100B30001434A14217D0134C2834A14213D0114CC5
:100B40003C34A1420FD00F4C5034A1420BD00D4C7D
:100B50006434A14207D00B4C7834A14203D0094C35
:100B60008C34A14203D10849074C443102E00749C3
:100B7000064C443104EB8202C0E91B21012199405B
:100B8000416710BD08540258FC580258FC08024046
:100B900010B583694FF0C074826A0146002053B1DA
:100BA000B3F5005F15D072B1012A0CD0022A0AD029
:100BB000032A09D104E01AB1012A06D0022A03D17E
:100BC000C96AC90100D5012010BDC96AA142FAD085
:100BD00010BD002AF7D0012AF2D0022AF3D0032A4E
:100BE000F3D010BD2DE9F04F804E804FDFF8FC911F
:100BF0001836DFF8F8A148370468856D0AF1300A25
:100C0000DFF8ECB14C45DFF8ECC1DFF8ECE16DD07A
:100C1000B4426BD0544569D0BC4267D0DFF8D08174
:100C2000A8F11808444561D05C455FD064455DD0AB
:100C300074455BD0DFF8C481444557D0DFF8BC81F0
:100C400008F11808444551D0DFF8B08108F13008A8
:100C500044454BD0DFF8A48108F14808444545D00D
:100C6000DFF8988108F1600844453FD0DFF88C81B7
:100C700008F17808444539D0DFF8808108F1900800
:100C8000444533D0DFF8748108F1A80844452DD0DD
:100C9000DFF86C81444529D0DFF8648108F114083D
:100CA000444523D0DFF8588108F1280844451DD079
:100CB000DFF84C8108F13C08444517D0DFF840814B
:100CC00008F15008444511D0DFF8348108F1640878
:100CD00044450BD0DFF8288108F17808444505D059
:100CE000DFF81C8108F18C08444509D1D0E9194886
:100CF000C4F80480C46E1CB1D0E91C48C4F8048058
:100D000004684C452ED0B4422CD054452AD0BC4265
:100D100028D0374E183EB44224D05C4522D06445DA
:100D200020D074451ED0354EB4421BD0334E1836F9
:100D3000B44217D0314E3036B44213D02F4E48361D
:100D4000B4420FD02D4E6036B4420BD02B4E7836C5
:100D5000B44207D0294E9036B44203D0274EA8366D
:100D6000B44215D190F85C603F2406F01F06B440F1
:100D7000AC600468256825F4802525602EE09A6023
:100D80000068C160BDE8F08F99600068C260F9E753
:100D90001B4EB4421BD01A4E1436B44217D0184E14
:100DA0002836B44213D0164E3C36B4420FD0144EFF
:100DB0005036B4420BD0124E6436B44207D0104EB7
:100DC0007836B44203D00E4E8C36B442DAD190F865
:100DD0005C60012406F01F06B4406C600468636028
:100DE0008368402B0368CFD1C9E7000010000240A0
:100DF00088000240A0000240B800024010040240F7
:100E000008540258704700002DE9F041224F002697
:100E10004FF47A750446A7F120082DED028B9FED63
:100E20001F8A1D4902221E4800F016FDD8F818102E
:100E3000761C94ED030AAE4237F8111000EE901ABA
:100E4000F8EE600A00EE880A84ED030AD8F81C0068
:100E500094ED040A37F8100000EE900AF8EE600AEC
:100E600000EE880A84ED040ADBDB00EE105A94EDF4
:100E7000031AD4ED040AF8EE401AB8EE402A81EEC7
:100E8000210A80EE821A84ED030A84ED041ABDEC77
:100E9000028BBDE8F0810000240000245940533A41
:100EA0005C01002472B6FEE710B50F4C00210F481C
:100EB00084ED010A03F012FF0C48042103F00EFF39
:100EC0000A48082103F00AFF0948FFF75BFD0748BD
:100ED0000068C06A00EE100AB8EE400A84ED060A07
:100EE000BDE81040FFF71ABD300000248C0200243A
:100EF000C400002410B5044600F028F8D4ED020A1E
:100F0000104970EE600AB0EEE01A11EE100A884245
:100F10000BDDF5EEC00AE168F1EE10FA02DD4FF0EC
:100F2000FF3000E001200844E060D4ED030A9FEDAB
:100F3000061A84ED020AF8EEE00A00EE810A84ED5A
:100F4000010A10BD7CD9A040DB0FC94038B504466A
:100F500069460020022200900C20FFF7CFFCBDF86C
:100F60000000DFED080A9FED081A40BA01B200EE5A
:100F7000101AB8EEC00A20EE200A20EE010A84ED15
:100F8000010A38BDDB0FC9400000803970B5054645
:100F90004FF0E0202049234E84699FED201A9FEDF9
:100FA000202AD1ED000A686980EE810AA04205DAA4
:100FB000201A00EE900AF8EEE00A0BE001EE100AAB
:100FC00001EE904AB8EEC11AF8EEE11A70EEC10ACD
:100FD00070EEA10A144980EE801A21EE020A10EE8A
:100FE000100A86ED000A884203DA9FED100A86EDAA
:100FF000000A2846FFF77EFFD5ED060AD6ED001A57
:1010000030EE601AC1EE210AC5ED040A6C6185ED6F
:10101000060AB0EE600A70BD8800002400007A4421
:101020006F12833A0000002417B7D13817B7D138B0
:101030002DE9F0470F4690F850109AB00446012968
:101040004FF0000915D00026DFF8F880012084F861
:10105000500015961696216841450ED13A4D0095DF
:10106000284604F02DF98246206804F029F960B181
:101070000EE002201AB0BDE8F087606D84F8506081
:1010800040F0200060650120F4E7BAF1000F09D0BC
:10109000616D4FF0010941F020006065484684F819
:1010A0005060E7E720684146884201D0A84201D15C
:1010B000264800E0264840F61F72D7F800C0254BAE
:1010C000BCF1000F23D0D0F808C0D7F804802CF46E
:1010D000404C4CEA080CC0F808C0D4F800C08C455D
:1010E00001D0AC4507D18968AB6801F0010103F07C
:1010F0000103194302E0996801F001010029CDD1F3
:10110000BD683968836829439343194317E08768AA
:1011100027F44047876027688F4201D0AF4207D14C
:101120008968AB6801F0010103F00103194302E093
:10113000996801F001010029B0D181689143816073
:10114000ACE70000002002400021024000230240E2
:1011500000630258006002582DE9F84F4FF0000B71
:101160000D46E54F0446CDF800B0D94690F8501032
:10117000DFF888A3012907D0012684F85060206891
:1011800004F09AF818B168E10220BDE8F88F2868E9
:1011900000280DDB21680303CA6927D090FAA0F06C
:1011A000B0FA80F000F01F0006FA00F00243CA61B6
:1011B000D5E900124FF00C0C20681F23C1F38461A5
:1011C0000CEA921C02F01F02604493409140026BB3
:1011D0009A430A430263206804F06EF88046206850
:1011E00004F066F858EA000003D07FE0C0F38460A2
:1011F000D8E72068AA68296804F06EF8C04800683B
:10120000B6EB107F06D121686869C968C1F3820115
:10121000490008E02068C168C906C1686869F5D559
:1012200001F0100149088840296904292ED023685B
:101230002A6803EB810102F0F8420B6E024303F0CF
:10124000004010430866697E22682869012917D08A
:101250005FF0000102EB8000026E22F000420A43C0
:101260000266297E20682A6901290CD000210369C1
:1012700002F01F02914023F4F0420A43026135E07C
:101280004FF00041E6E74FF40061F0E7206829786D
:10129000026E02F0F842B2EB816F03D1016E21F0D1
:1012A0000041016620682978426E02F0F842B2EBF4
:1012B000816F03D1416E21F0004141662068297899
:1012C000826E02F0F842B2EB816F03D1816E21F0A1
:1012D0000041816620682978C26E02F0F842B2EBC4
:1012E000816F03D1C16E21F00041C1662068816821
:1012F00011F0010F76D150F8C02F95F80CC0814B3A
:1013000029680CF0180823FA08F3C1F3130C0B40FA
:1013100022EA0C021A4302607B48E968814277D1D5
:10132000286801031BD090FAA0F1B1FA81F1491CA1
:1013300001F01F0109294FEA003131D8002911D0ED
:1013400090FAA0F1B1FA81F101F1010101F01F0160
:1013500006FA01F609D100BFC0F3846109E0C0F3C9
:101360008461E4E7C0F38461EEE790FAA0F1B1FA9A
:1013700081F101F1010101F01F0146EA816102D111
:10138000C0F3846003E090FAA0F0B0FA80F000F1BE
:10139000010000F01F0000EB400041EA005133E083
:1013A00000290ED090FAA0F1B1FA81F101F101010A
:1013B00001F01F0106FA01F606D100BFC0F38461F7
:1013C00006E0C0F38461F1E790FAA0F1B1FA81F18F
:1013D00001F1010101F01F0146EA816103D1C0F36F
:1013E000846004E03FE090FAA0F0B0FA80F0474A51
:1013F00000F1010000F01F0000EB400002EB005084
:1014000041EA000141F00071AA68206803F064FF1E
:101410002E68002E27DA3E4A20683E49DFF8F8C0E1
:10142000904201D0B84201D10B4600E063469B6870
:10143000904203F0E07301D0B84209D19568D7F823
:10144000088005F0010508F0010845EA080503E0F9
:10145000DAF8085005F001054DB1616D4FF0010952
:1014600041F020006065484684F850B08DE62B4D71
:10147000AE421CD11D021AD45045F4D1904202D084
:10148000B84200D061468A6843F4000022F0E0725E
:1014900002438A60234922480968B1FBF0F040000A
:1014A000801C00E0401E00900028FBD1DBE71E4DB1
:1014B000AE420CD1DD010AD45045D4D1904202D0C5
:1014C000B84200D061468A6843F080700EE0174D44
:1014D000AE42C8D15D02C6D45045C4D1904202D0BC
:1014E000B84200D061468A6843F4800022F0E0727E
:1014F00002438A60B7E70000002102400060025802
:101500000010005CFFFF0F000000FF47000020FEFE
:10151000002002400023024000630258000084CBF8
:10152000400D03009C000024000052C70000B8CF0B
:101530007047704770470000F8B54FF00006040090
:101540003546009602D0606D10B107E00120F8BD6D
:10155000204600F005F9A66584F85060206881688F
:10156000C1F3407119B18168704A114081602068EF
:101570008168C1F3007181B981686D4A114041F001
:10158000805181606C496B480968B1FBF0F0401CE8
:1015900000E0401E00900028FBD120688168C1F364
:1015A000007141B9616D012541F010016165A16DC6
:1015B00041F00101A16503F07FFE616DC90600D411
:1015C00020B1606D012540F0100093E0606D20F4C3
:1015D000807040F0020060652068816811F0010FA2
:1015E0001FD1564A564B904201D0984207D191687C
:1015F0009E6801F0010106F00106314303E0514904
:10160000896801F0010161B9904201D0984201D18D
:101610004D4800E04D488268616822F47C120A431C
:10162000826001F06FF941F20301884202D9A0689B
:1016300010280CD0617D227FA368206B490341EA0A
:10164000024118430843217F01290CD010E0607D3E
:10165000227F216B400340EA024241F01000104318
:1016600040F00C00EFE7218C394A02EB414108437E
:10167000616A29B1A26A01F47871014342EA01006A
:101680002168344BCA681A400243CA60206803F0DC
:1016900013FE0646206803F00BFE30431DD121687F
:1016A00044F20303267DE26AC86842EA8632984320
:1016B0001043C86094F8380001281ED020680169E2
:1016C00021F0010101612068626B016921F0704124
:1016D000114301612046FEF7F3FFE068012820680E
:1016E0001CD0016B21F00F010163606D20F002003E
:1016F00040F0010060652846F8BD2068A28F164FB3
:10170000D4E9101C154E07EB0247A36C026941EAAD
:101710000C013B43324019431143D3E7A269016BEB
:10172000521E21F00F011143DEE70000C0FFFF5FF2
:10173000C0FFFF7F400D03009C00002400200240FA
:10174000002102400060025800230240006302585A
:101750000000FEFF03C0F0FF0100FFFF1EF800FCC9
:10176000F0B5B7B00546142130A8FEF7E9FDC02159
:101770006846FEF7E5FD3249286888425ED10022BE
:101780004FF0200C0220144604234FF400218DE872
:101790000E000926CDE90360C027299206AA05900C
:1017A0003901099182E88110684601F0DDFE08B137
:1017B000FFF778FB2348016841F0200101600068D1
:1017C00000F0200035901F480830016841F0010109
:1017D0000160016801F001013591016841F00401E7
:1017E00001600068032730A9329400F004003590AE
:1017F0004020CDE93007144800F068FF10203294F3
:10180000CDE93007114830A900F060FF104F1148B2
:1018100001153860C7E90164CB00C7E9034107F14E
:101820001401C214384681E81C003C627C6200F05E
:101830000BFC08B1FFF736FBEF64BD6337B0F0BDBA
:1018400000200240D8440258000002580008025804
:10185000C0010024100002402DE9F047384E044634
:1018600000689146DFF8DC808A46B04201D04045EE
:1018700001D1354900E03549896801F01F0503F0C1
:101880001BFD002859D194F85000012855D00120A3
:101890004FF0000784F8500025B1052D02D0092D26
:1018A00000D003E02046FEF7D5FF18B184F8507051
:1018B000BDE8F087616D40F60163206899434045BB
:1018C00041F48071616500D00646864200D01DB9A2
:1018D000606D20F480106065606DC00404D5A06D5B
:1018E00020F00600A06500E0A7651C20E16C184A06
:1018F000CA63E26C17491164E26C1749D16421682C
:10190000086084F850702068416841F0100141601F
:101910002068E16AC26822F003020A43C2602168BB
:101920004B46E06C5246403100F070FD21680B4B95
:101930008A681A40121D8A60BAE70220B8E70000E0
:1019400000200240002102400023024000630258B0
:10195000C90700084B08000831080008C0FFFF7FD6
:101960002DE9FC5F0446F74E0020DFF8D883009095
:101970004FF41652F44808F11808A56DDFF8C49327
:10198000DFF8C0A3016809F1300920680AF1480AAC
:10199000B1FBF2F1B04201912F68D5F800C0DFF839
:1019A000ACB335D04146884232D0484530D050455E
:1019B0002ED058452CD0E5491831884228D0E3492B
:1019C0003031884224D0E1494831884220D0E04972
:1019D00088421DD0DE491831884219D0DC493031A7
:1019E000884215D0DA494831884211D0DFF860E3E7
:1019F0000EF1600E70450BD0D54A7832904207D078
:101A0000D34B9033984203D0D149A83188427DD13D
:101A100094F85C20082102F01F0201FA02F23A4217
:101A20004AD0B04232D0404530D048452ED0504503
:101A30002CD058452AD0C54A1832904226D0C34AE5
:101A40003032904222D0C14A483290421ED0C04A21
:101A500090421BD0BE4A1832904217D0BC4A303256
:101A6000904213D0BA4A483290420FD0B84A6032FE
:101A700090420BD0B64A7832904207D0B44A9032A6
:101A8000904203D0B24AA832904203D1026802F0D9
:101A9000040202E0026802F008026AB1026822F061
:101AA0000402026094F85C0000F01F008140A9600D
:101AB000606D40F00100606594F85C00012100F069
:101AC0001F008140394240D02068B04234D04045A8
:101AD00032D0484530D050452ED058452CD09B4A66
:101AE0001832904228D0994A3032904224D0974AF6
:101AF0004832904220D0964A90421DD0944A1832E3
:101B0000904219D0924A3032904200E0AFE113D0B7
:101B10008F4A483290420FD08D4A603290420BD0AB
:101B20008B4A7832904207D0894A9032904203D053
:101B3000874AA83290427DD1406910F0800F04D0CE
:101B4000A960606D40F00200606594F85C000421BB
:101B500000F01F00814039423ED02068B04232D0B0
:101B6000404530D048452ED050452CD058452AD03D
:101B7000764A1832904226D0744A3032904222D0AF
:101B8000724A483290421ED0714A90421BD0704A2D
:101B90001832904217D06E4A3032904213D06C4ABD
:101BA000483290420FD06A4A603290420BD0684A65
:101BB0007832904207D0664A9032904203D0644A0D
:101BC000A83290424ED1006810F0020F04D0A960F4
:101BD000606D40F00400606594F85C00102100F036
:101BE0001F008140394258D02068B04234D040456F
:101BF00032D0484530D050452ED058452CD0534A8D
:101C00001832904228D0514A3032904224D04F4A64
:101C10004832904220D04E4A90421DD04C4A183251
:101C2000904219D04A4A3032904215D0484A483240
:101C3000904200E014E00FD0454A603290420BD051
:101C4000434A7832904207D0414A9032904203D0C2
:101C50003F4AA832904207D1006800F0080006E031
:101C6000006872E70068B7E7006800F00400A0B100
:101C7000A96020680168490304D50068000308D5FD
:101C8000A16C07E00168C90503D4016821F00801CF
:101C90000160216C09B12046884794F85C0020213E
:101CA00000F01F008140394279D02068B04232D024
:101CB000404530D048452ED050452CD058452AD0EC
:101CC000224A1832904226D0204A3032904222D006
:101CD0001E4A483290421ED01D4A90421BD01C4AD8
:101CE0001832904217D01A4A3032904213D0184A14
:101CF000483290420FD0164A603290420BD0144ABC
:101D00007832904207D0124A9032904203D0104A63
:101D1000A832904203D1006800F0100002E0006891
:101D200000F00200B0B3A96094F8350004282068E0
:101D300001680FD049037ED5006800032BD4616C85
:101D40002AE00000100002409C00002470000240C5
:101D50001004024021F0160101602068416921F061
:101D600080014161206C08B9A06C20B12068016835
:101D700021F00801016094F85C303F21012003F05C
:101D80001F0300229940A96084F8350084F83420AC
:101D9000216D65E003E0E16B09B120468847606D85
:101DA00000287DD0606DC00759D02068042184F8D8
:101DB0003510B0422BD0404529D0484527D050455A
:101DC00025D0584523D09D49884220D09B491831C1
:101DD00088421CD099493031884218D098498842AD
:101DE00015D097491831884211D095493031884231
:101DF0000DD093494831884209D0914960318842D9
:101E000005D08F497831884201D08D4990310168E1
:101E100021F00101016020680099019A491C00919C
:101E2000914202D80168C907F6D10068C00710D0F6
:101E300003200FE0FFE70168C905ACD40368012166
:101E4000002223F01003036084F8351084F8342056
:101E5000A1E7012084F83500002084F83400E16C0B
:101E600000291DD002B02046BDE8F05F0847754943
:101E700088421DD073491431884219D071492831E4
:101E8000884215D06F493C31884211D06D4950319C
:101E900088420DD06B496431884209D0694900E01D
:101EA00084E07831884203D066498C3188427DD104
:101EB00094F85C800427016808F01F0807FA08F707
:101EC00017EA0C0F009746D04F0744D500980F042F
:101ED000686003D5C8033CD4A16CC1E7880638D438
:101EE0002068B0422DD055496039884229D04845F4
:101EF00027D0504525D0584523D05049884220D07E
:101F00004E49183188421CD04C493031884218D093
:101F10004B49884215D04A491831884211D0484966
:101F2000303188420DD046494831884209D0704549
:101F300007D0904205D0984203D04149A831884249
:101F400003D1016821F0080102E0016821F00401D9
:101F50000160216C84E7022707FA08F717EA0C0FE3
:101F600000974ED08F074CD500980F04686003D5BA
:101F7000C80344D4616C73E7880640D42068B0423B
:101F80002FD02E49603988422BD0484529D0504562
:101F900027D0584525D02949884222D027491831D1
:101FA00088421ED025493031884200E044E018D0F4
:101FB0002349884215D022491831884211D020493E
:101FC000303188420DD01E494831884209D07045D1
:101FD00007D0904205D0984203D01949A8318842D1
:101FE00003D1016821F0140102E0016821F00A0127
:101FF0000160012184F83510002084F83400E16B81
:102000002EE7082202FA08F212EA0C0F14D0090790
:1020100012D5016821F00E01016094F85C100120D6
:10202000002201F01F0100FA01F16960606584F887
:10203000350084F8342012E7BDE8FC9F8800024098
:1020400010040240085402582DE9F05F044600F0E5
:102050005FFC002C07467DD0E34E022120684FF044
:102060000308DFF888934FF00005DFF884A3B0423F
:10207000DFF880B334D0DC4A1832904230D0484583
:102080002ED050452CD058452AD0DA4A18329042EA
:1020900026D0D84A3032904222D0D64A4832904296
:1020A0001ED0D54A90421BD0D34A1832904217D046
:1020B000D14A3032904213D0CF4A483290420FD0AA
:1020C000CD4A603290420BD0CB4A7832904207D052
:1020D000C94A9032904203D0C74AA83290427DD17B
:1020E00084F83510B04284F834502ED0BE491831EF
:1020F00088422AD0484528D0504526D0584524D07B
:10210000BC491831884220D0BA49303188421CD0AD
:10211000B8494831884218D0B749884215D0B649E5
:102120001831884211D0B449303188420DD0B249BB
:102130004831884209D0B0496031884205D0AE4963
:102140007831884201D0AC499031016821F0010119
:10215000016008E027E100BF00F0DAFBC01B0528A2
:1021600001D920211CE120680068C007F4D104F1E6
:1021700008002168D4E9053C8E4685C809681043EB
:10218000D4E907281F43636A38439C4F40EA0C0098
:102190001043394040EA0800042B40EA010003D113
:1021A000D4E90B1211430843954909686FF30F01F5
:1021B000B1F1005F0FD36168A1F12902052A08D9A6
:1021C000163A032A05D9083A012A02D94F390329B8
:1021D00001D840F48010CEF8000000E023E0206831
:1021E000676A4069042F20F0070047EA00070DD115
:1021F000D4E90A01074349B12046FEF7C9FC28B1DA
:1022000040206065012184F83510CCE020684761EA
:102210002046FEF7DBFB94F85C203F2102F01F0212
:102220009140816054E0774A90421BD0754B143343
:10223000984217D0734B2833984213D0714B3C33DC
:1022400098420FD06F4B503398420BD06D4B643394
:10225000984207D06B4B7833984203D0694B8C334C
:1022600098427DD184F8351084F83450664B01686B
:10227000A26801EA030E402A73D0802A72D000229D
:10228000D4E90378D4E9053142EAD70242EAD80812
:102290005C4AD4E9077C48EAD30848EAD10141EA1C
:1022A000D701524241EA1C11142341EA0E01016098
:1022B00020681044B0FBF3F08000E0652046FEF794
:1022C00085FB94F85C20012102F01F0291404160DF
:1022D0002068B04257D044491831884253D048450D
:1022E00051D050454FD058454DD0424918318842C1
:1022F00049D040493031884245D03E494831884232
:1023000041D03D4988423ED03B49183188423AD0BD
:1023100039493031884236D037494831884232D045
:102320003549603188422ED03349783188422AD0ED
:1023300031499031884226D02F49A831884222D095
:10234000304988421FD02F49143188421BD02D4973
:102350002831884217D02B493C31884213D002E003
:102360001DE017E018E02749503188420BD025497D
:102370006431884207D023497831884203D021490B
:102380008C31884229D12046FEF77AFBA06880284C
:102390000CD00CE0102273E74FF4804270E740212C
:1023A000616584F835800120BDE8F09F6560216E8D
:1023B00020790860D4E9190141606068401E07284F
:1023C00008D82046FEF7AAFBE06E0560D4E91C01A0
:1023D000416002E0E566256765670120656584F870
:1023E00035000020E0E700001000024040000240FD
:1023F0005800024070000240100402403F8010FE6E
:102400000010005C085402580F00FEFF2DE9F84F41
:1024100004008C464FF00000009014D094F8340073
:10242000012812D094F835500120002184F834009E
:10243000012D0CD0C00260650120009084F834109A
:102440000098BDE8F88F0120FBE70220F9E78C4DEA
:102450000226206884F83560A8428A4D61658A4E5C
:102460008A4FDFF82C82DFF82C92DFF82CA2DFF8FD
:102470002CB226D0A84224D0B04222D0B84220D0DC
:1024800040451ED048451CD050451AD0584518D05C
:102490008349884215D082491831884211D0804939
:1024A000303188420DD07E494831884209D07C497C
:1024B0006031884205D07A497831884201D0784924
:1024C0009031016821F00101016061462046FEF76C
:1024D00089FB6B49206888422CD0A8422AD0B042A0
:1024E00028D0B84226D0404524D0484522D0504577
:1024F00020D058451ED06A4A90421BD0684A1832F4
:10250000904217D0664A3032904213D0644A483223
:1025100090420FD0624A603290420BD0604A7832CB
:10252000904207D05E4A9032904203D05C4AA83273
:1025300090420CD1026822F01E0242F016020260A4
:10254000206C88B12068026842F008020BE0026843
:1025500022F00E0242F00A020260206C20B12068D4
:10256000026842F004020260206888424BD0A84210
:1025700049D0B04247D0B84245D0404543D0484505
:1025800041D050453FD058453DD0454A90423AD081
:10259000434A1832904236D0414A3032904232D0CB
:1025A0003F4A483290422ED03D4A603290422AD073
:1025B0003B4A7832904226D0394A9032904222D01B
:1025C000374AA83290421ED0364A90421BD0354A34
:1025D0001432904217D0334A2832904213D0314AF5
:1025E0003C3290420FD02F4A503290420BD02D4AAD
:1025F0006432904207D02B4A7832904203D0294A65
:102600008C3290420DD1206E0268D20303D502684D
:1026100042F480720260E06E18B1026842F4807287
:1026200002602068884226D0A84224D0B04222D03E
:10263000B84220D040451ED048451CD050451AD045
:10264000584518D01649884215D015491831884286
:1026500011D01349303188420DD011494831884298
:1026600009D00F496031884205D00D497831884240
:1026700001D00B499031016841F001010160DFE6B2
:102680001000024028000240400002405800024072
:102690007000024088000240A0000240B8000240E2
:1026A000100402400854025870B5044600F030F996
:1026B0000546601C02D004480078044400F028F964
:1026C000401BA042FAD370BD900000242DE9F84FC2
:1026D00003247D4D00234FF001094FF0B04B4FF024
:1026E0000F0AE9E009FA03F73A4076D00E7906F0CE
:1026F0000306012E01D0022E18D1D0F808C04FEAEF
:10270000430ECE6804FA0EF82CEA080C06FA0EF610
:1027100046EA0C068660D0F804C00E792CEA070C55
:10272000C6F300169E4046EA0C0646600E79F64354
:10273000B6070BD0C6684FEA43088F6804FA08FC56
:1027400026EA0C0607FA08F73743C7600E7906F049
:102750000306022E12D1DE080F694FEA437C00EB1C
:102760008606B646366A4FEADC6C0AFA0CF807FAB7
:102770000CF726EA08063743CEF820700F79066872
:102780004FEA430807F0030704FA08FC07FA08F7C2
:1027900026EA0C06374307604E6816F4403F1CD00B
:1027A0004A4E376847F00207376036689F0706F0E1
:1027B0000206009623F0030606F1B046B6463F0F28
:1027C000D6F80864DFF808810AFA07FC404526EAD3
:1027D0000C0603D14FF0000C41E06CE0DFF8F4C0D0
:1027E000604502D14FF0010C39E0DFF8ECC06045E4
:1027F00002D14FF0020C32E0DFF8E0C0604502D1B8
:102800004FF0030C2BE0DFF8D8C0604502D14FF049
:10281000040C24E0DFF8CCC0604502D14FF0050C79
:102820001DE0DFF8C4C0604502D14FF0060C16E091
:10283000DFF8B8C0604502D14FF0070C0FE0DFF8B9
:10284000B0C0604502D14FF0080C08E0DFF8A4C02A
:10285000604502D14FF0090C01E04FF00A0C0CFA70
:1028600007FC4CEA060CCEF808C44F68DBF80060A1
:10287000FF0226EA020600D516435F46CBF8006049
:10288000D1F804C0DBF804605FEA8C2C26EA02066B
:1028900000D516437E606E684F6826EA0206BF03C5
:1028A00000D516436E602E684F6826EA0206FF03C5
:1028B00000D516432E605B1C0A6832FA03F67FF4DB
:1028C00011AFBDE8F88F000080000058F4440258B2
:1028D000000002580004025800080258000C025878
:1028E000001002580014025800180258001C025828
:1028F00000200258002402580AB18161704709047F
:10290000FBE7000001480068000C70470010005C05
:1029100001488068704700009000002430B590F8AE
:102920004120202A24D190F84020012A20D00123E0
:1029300080F84030242280F84120202300240268BF
:10294000156825F0010515600268156825F48055A5
:102950001560026815680D43156001680A6842F049
:1029600001020A6080F8413080F84040002030BD0C
:10297000022030BD30B590F84120202A22D190F8B5
:102980004020012A1ED0012380F84030242280F804
:102990004120202400250268136823F001031360FE
:1029A0000268136823F4706343EA0121116001682F
:1029B0000A6842F001020A6080F8414080F8405005
:1029C000002030BD022030BD70B5040004D094F862
:1029D0004100002510B106E0012070BD204684F8BA
:1029E000405000F003F9242084F841002068016879
:1029F00021F001010160D4E9001020F0706008614D
:102A00002068816821F400418160E0682168012824
:102A1000A06830D040F404408860E0680228206854
:102A200041682BD021F40061416020682021154AC3
:102A30004368134343602068C26822F40042C260C6
:102A400054F8106B0DCC104340EA0320F06054F8AA
:102A50001C3CD4E900021043186054F81C0D0268B5
:102A600042F001020260656484F84110256384F835
:102A70004250002070BD40F40040CDE741F40061B9
:102A8000D2E70000008000022DE9FF4F83B004462A
:102A900090F841009A469346DDE91087DDF84890AA
:102AA000202874D15FEA080014D09FB194F8400048
:102AB00001286CD0012084F84000FFF729FF012293
:102AC000064619230090D103204602F059FB002846
:102AD00071D103E04FF4007060646CE00025C4F82D
:102AE0002480222184F84110402084F8420065644B
:102AF0006785534665635A4604992046CDE900969A
:102B000002F0F4FA10B184F8405054E0618DFF27D0
:102B100034484FF08078FF294FF0007A04D9278598
:102B20003A464346009005E0618D5346218500906A
:102B300094F828202046049902F00AFB00224B4614
:102B400004212046009602F01BFBA0BB2068616AAE
:102B5000406A0870606A401C6062208D401E81B22D
:102B60002185608D401E6085608DD8B1D1B900226D
:102B70004B4680212046009602F002FBD8B9608DBA
:102B8000FF2805D927853A464346009506E026E00A
:102B9000608D53462085009594F82820204604999E
:102BA00002F0D6FA608D0028C8D132464946204648
:102BB00002F024FB18B1012007B0BDE8F08F2168B6
:102BC0002020094AC86121684B6813404B6084F893
:102BD000410084F84250002084F84050ECE7022085
:102BE000EAE700000024008000E800FE10B5B6B05F
:102BF0000446142130A8FDF7A3FBC0216846FDF769
:102C00009FFB1949206888422BD100202190082180
:102C10000446CDE90010684600F0A6FC08B1FEF7B6
:102C200041F91248016841F002010160006830ABCF
:102C3000122100F0020035904FF44060042283E836
:102C400013000B4830A9CDE93342FFF73FFD074899
:102C50000830016841F480010160006800F48000E0
:102C6000359036B010BD000000580040E0440258D6
:102C7000000402580248816802781144816070475C
:102C800090000024032010B500F0D4F801F0B6FA4B
:102C90000F4A104914681368C4F3032203F00F03AA
:102CA0008A5CC95C02F01F0201F01F01D0400A4A91
:102CB00020FA01F11160094908600F2000F010F8B6
:102CC00008B1012010BD00F079F8002010BD00000F
:102CD000184402583C700008A00000249C00002406
:102CE00070B50D4D04462878A0B14FF47A71B1FB50
:102CF000F0F00A490968B1FBF0F001F0DCFD48B9D9
:102D0000102C07D200222146501E00F073F800203C
:102D10006C6070BD012070BD900000249C000024F8
:102D2000154BF0B5083B427813491A600B680A1F2F
:102D300023F001030B6043681360057BC67A827A37
:102D4000437B2D07847B45EA0665C77B90F809C065
:102D5000067A90F800E045EAC24040EA834040EA43
:102D6000444040EA074040EA0C2040EA460040EA7E
:102D70000E000860F0BD0000A0ED00E0BFF35F8F23
:102D8000044800210368034A23F48033036070324F
:102D90001160704724ED00E0074A40F00100064949
:102DA00070321060086840F480300860BFF34F8FC5
:102DB000BFF36F8F7047000024ED00E0054808B5B1
:102DC000016841F002010160006800F0020000901B
:102DD00008BD0000F4440258002809DB410900F056
:102DE0001F028900012001F1E0219040C1F800019B
:102DF000704700000E4BF0B41B680D46C3F302236E
:102E0000C3F10706042E00D90426191D072901D293
:102E1000002300E0DB1E012404FA06F19C40491E59
:102E20002940641E994014402143F0BC03F064BD66
:102E30000CED00E0064900F0070210B54FF6FF0464
:102E40000868044B204040EA02201843086010BD87
:102E50000CED00E00000FA05134970B50A68D24392
:102E6000520705D5096801F00701814213D118E026
:102E70000A6822F0070202430A60FFF749FD0A4D83
:102E80004FF47A760446083D07E000BFFFF740FDA7
:102E9000001BB04201D9012070BD2868C0438004E6
:102EA000F4D4002070BD00000C48025810B501F0A9
:102EB0005FF905490968054AC1F30211515C01F047
:102EC0001F01C84010BD0000204402583C7000089B
:102ED0004A4930B5494C0B1D0A680C3409681D6815
:102EE000246802F0030305F00102C1F30511C4F3E5
:102EF000CC04002914FB02F200EE102AF8EE400A7E
:102F000076D0414A9FED3E1ADFED3E1AB7EE000A39
:102F100023B1012B5AD0022B18D15CE0374C283C4E
:102F200023689B0612D5394B246801EE901A11686C
:102F3000C4F3C104F8EE612AE34001EE903AC1F314
:102F40000801F8EE611A81EEA22A07E002EE101ADB
:102F50001168F8EE422A81EEA22A45E001EE901AAD
:102F60001168F8EE611A40EE811A71EE800A62EE85
:102F7000200AC1F3462101EE101AB8EE411A31EED3
:102F8000001AC0EE811ABCEEE11A80ED001A116839
:102F9000C1F3064101EE101AB8EE411A31EE001AE3
:102FA000C0EE811ABCEEE11A80ED011A1168C1F37E
:102FB000066101EE101AB8EE411A31EE000A80EEF9
:102FC000801ABCEEC10A80ED020A30BD01EE901AF3
:102FD000DFED0F2A03E001EE901ADFED0E2A1168F3
:102FE000F8EE611A82EEA12AC1F30801B6E7FFE705
:102FF000002101604160816030BD0000284402581A
:10300000000000390024744C304402580090D00372
:103010000024744A20BCBE4B494930B5484C0B1DB6
:103020000A68143409681D68246802F00303C5F3B4
:103030000012C1F30531C4F3CC04002914FB02F2E1
:1030400000EE102AF8EE400A75D03F4A9FED3D1A77
:10305000B7EE000A6BB1DFED3D1A012B01D0022B58
:1030600064D002EE101A1168F8EE422A81EEA22A0C
:1030700021E0334C283C23689B0612D5344B24684E
:1030800001EE901A1168C4F3C104F8EE612AE3401E
:1030900001EE903AC1F30801F8EE611A81EEA22A1E
:1030A0000BE001EE901ADFED2B2A00BFF8EE611A5B
:1030B000116882EEA12AC1F3080101EE901A11688D
:1030C000F8EE611A40EE811A71EE800A62EE200A73
:1030D000C1F3462101EE101AB8EE411A31EE001A82
:1030E000C0EE811ABCEEE11A80ED001A1168C1F33E
:1030F000064101EE101AB8EE411A31EE001AC0EE88
:10310000811ABCEEE11A80ED011A1168C1F3066163
:1031100001EE101AB8EE411A31EE000A80EE801A64
:10312000BCEEC10A80ED020A30BD04E001EE901A47
:10313000DFED092ABAE70021016041608160F3E711
:103140002844025800000039384402580024744AC8
:103150000090D0030024744C20BCBE4B494930B5CC
:10316000484C0B1D0A681C3409681D68246802F06D
:103170000303C5F30022C1F30551C4F3CC040029B5
:1031800014FB02F200EE102AF8EE400A75D03F4A16
:103190009FED3D1AB7EE000A6BB1DFED3D1A012B32
:1031A00001D0022B64D002EE101A1168F8EE422A08
:1031B00081EEA22A21E0334C283C23689B0612D5DD
:1031C000344B246801EE901A1168C4F3C104F8EE80
:1031D000612AE34001EE903AC1F30801F8EE611A6A
:1031E00081EEA22A0BE001EE901ADFED2B2A00BF40
:1031F000F8EE611A116882EEA12AC1F3080101EE0E
:10320000901A1168F8EE611A40EE811A71EE800A88
:1032100062EE200AC1F3462101EE101AB8EE411AFF
:1032200031EE001AC0EE811ABCEEE11A80ED001AF0
:103230001168C1F3064101EE101AB8EE411A31EEE1
:10324000001AC0EE811ABCEEE11A80ED011A116875
:10325000C1F3066101EE101AB8EE411A31EE000A10
:1032600080EE801ABCEEC10A80ED020A30BD04E097
:1032700001EE901ADFED092ABAE7002101604160F2
:103280008160F3E7284402580000003940440258A6
:103290000024744A0090D0030024744C20BCBE4B20
:1032A0002DE9F04FAC4A0546DFF8A8A280F4807003
:1032B000DFF8AC9289B01311AA4C0843A748AAF1D1
:1032C00004064FF0805C4FF000582CD085F4007756
:1032D0000F4357D0DFF87CB285F480670F430BF1C2
:1032E000080B61D085F400670F4374D085F48057D4
:1032F0000F436ED085F400570F434FF480394FF4DD
:10330000003E67D085F400270F4371D085F48037E5
:103310000F436ED085F480460E436BD085F4004297
:103320000A4368D02AE0DAF8001001F00701052905
:1033300024D2DFE801F075BC7D25B10006A8FFF7B7
:10334000C7FD079809B0BDE8F08F6846FFF764FE37
:103350000098F7E703A8FFF701FF0398F2E720685A
:10336000C0F3C10022FA00F0ECE72268D20571D563
:1033700061456FD11846E5E74145E3D00020E1E71C
:103380004846DFE7DAF8001001F4E07180294FD0F9
:1033900004DC002944D04029F0D188E0C029EFD0D6
:1033A000B1F5807FEAD177E0DBF8001001F460012D
:1033B000B1F5800F3CD004DC91B3B1F5001FDDD135
:1033C00075E0B1F5C00FDBD0B1F5000FD6D163E0E9
:1033D00001E018E030E0DBF8001001F0E061B1F14D
:1033E000007F25D008DCD9B1B1F1807FC6D15EE085
:1033F00049E06CE079E09CE0B1F1407FC0D0B1F1F0
:10340000806FBBD148E0DAF8001001F4E041B1F57B
:10341000005F0DD005DC19B1B1F5805FAED146E09B
:1034200094E0B1F5405FABD0B1F5804FA6D133E069
:1034300020688000A2D58DE7DAF8001001F4E021C1
:10344000B1F5403F6CD006DC61B149457AD0714599
:1034500094D157E037E0B1F5802F65D0B1F5A02FBA
:103460008CD10CE000F0A6FE6CE76846FFF7D4FDB7
:10347000019867E703A8FFF771FE049862E72168E7
:103480008903F1D47AE7DBF8001011F440310ED053
:10349000494510D07145F5D13168256801F040519A
:1034A0006D077FF562AF00297FF45FAF57E72068B3
:1034B0000001E7D549E720688000E3D503A8FFF7BE
:1034C0004DFE05983EE722689203DBD554E730684D
:1034D00010F480303AD04845D4D120680001D1D5CD
:1034E0006846FFF799FD02982CE7DBF8001001F021
:1034F000E041B1F1405F13D008DC71B1614521D0EA
:103500004145BFD120688000B4D437E7B1F1804F86
:103510000AD0B1F1A04FB2D030E7FFF7C7FC11E7F6
:1035200020684007AED51AE72068C005AAD521E774
:1035300008E0DAF8001011F04051A0D0614505D044
:1035400041459FD1206800018FD417E72068800192
:1035500098D5F3E6504402580090D00340787D019E
:103560000080BB00004402582DE9FE4F0546DFF8FD
:10357000E48350F8081B0024F64FC943019005F17D
:103580002800264608F12408009008011DD4A86EE2
:1035900050B1B0F5801F0CD0B0F5001F0ED0B0F5C3
:1035A000401F1ED001240FE0386840F4003038601E
:1035B00017E00198022102F033F903E0009802219C
:1035C00002F0BEF904000CD026462888C043C0058E
:1035D00023D4A86D05281ED2DFE800F00C11161BBD
:1035E0001B00AA6ED8F8001021F440111143C8F84E
:1035F0000010EAE7386840F40030386009E00198CC
:10360000002102F00DF903E00098002102F098F982
:10361000044674B100E0012426462888C043800592
:1036200028D4E86D80281ED00CDC90B140280ED143
:1036300014E0AA6DD8F8001021F007011143C8F872
:103640000010EAE7C02813D0B0F5807F10D0012425
:103650000FE0386840F40030386009E0019800213C
:1036600002F0DEF803E00098002102F069F9044658
:103670009CB126462888DFF8DC92C04309F12C096A
:1036800040052CD4D5F8A800B0F5800F20D00DDC73
:10369000A0B1B0F5001F0FD115E0EA6DD8F8001009
:1036A00021F4E0711143C8F80010E3E7B0F5C00F52
:1036B00013D0B0F5000F10D001240FE0386840F4AB
:1036C0000030386009E00198002102F0A9F803E019
:1036D0000098002102F034F904467CB1264628887F
:1036E000C04300052DD4D5F8AC00B0F1007F21D047
:1036F0000EDCA8B1B0F1807F10D116E0D5F8A8207B
:10370000D9F8001021F460011143C9F80010E6E770
:10371000B0F1407F13D0B0F1806F10D001240FE0E2
:10372000386840F40030386009E00198002102F068
:1037300077F803E00098002102F002F9044674B122
:1037400026462868C04380011FD4E86CD8B11028F1
:103750000FD0202812D0302815D0012414E0D5F83D
:10376000AC20D9F8001021F0E0611143C9F8001035
:10377000E7E7386840F40030386004E0019802213F
:1037800002F04EF8044674B126462888C043C004AF
:103790002BD4286EB0F5005F20D00DDCA0B1B0F5C1
:1037A000805F0FD115E06B48EA6C2030016821F092
:1037B000300111430160E8E7B0F5405F13D0B0F588
:1037C000804F10D001240FE0386840F4003038609A
:1037D00009E00198002102F023F803E0009800219D
:1037E00002F0AEF804468CB126462888C043800417
:1037F00029D4686EB0F5403F23D010DC08B3B0F593
:10380000803F14D0B0F5003F0FD115E02A6ED8F8F4
:10381000001021F4E0411143C8F80010E5E7B0F5CD
:10382000802F0ED0B0F5A02F0BD001240AE0019814
:10383000012101F0F5FF03E00098012102F080F87A
:10384000044694B126462888C04340042AD4D5F8BB
:10385000B000B0F1405F23D010DC08B3B0F1805F5E
:1038600014D0B0F1005F0FD115E06A6ED8F80010E7
:1038700021F4E0211143C8F80010E4E7B0F1804FD3
:103880000ED0B0F1A04F0BD001240AE00198012125
:1038900001F0C6FF03E00098012102F051F8044650
:1038A00074B126462888C04300041FD4286FD8B1BD
:1038B000B0F1805F0ED0B0F1005F10D0012414E0B1
:1038C000D5F8B020D9F8001021F0E0411143C9F833
:1038D0000010E7E7386840F40030386004E00198F1
:1038E000012101F09DFF044674B126462868C043BB
:1038F000C0011ED4A86CD0B101280ED0022811D06E
:10390000032814D0012413E02A6FD8F8001021F006
:1039100040511143C8F80010E8E7386840F400301F
:10392000386004E00198022101F07AFF0446ACB14E
:1039300026462868DFF81CB0C043ABF11C0B4002E0
:1039400052D40548016841F480710160FEF7E0FF40
:10395000824611E02C44025800480258FA48AA6CEA
:10396000016821F0030111430160E2E7FEF7D0FF97
:10397000A0EB0A00642835D8F4480068C005F5D5E6
:103980008CBBDFF8C4A3B5F8B4100AF1240ADAF846
:10399000000001F4407100F44070884211D0DAF860
:1039A0000010DAF8002021F4407142F48032CAF8A5
:1039B0000020DAF8002022F48032CAF80020CAF889
:1039C0000010D5F8B400B0F5807F1AD1FEF7A0FF43
:1039D000029012E0FEF79CFF0299411A41F28830F2
:1039E00081420AD9032426462878DFF85CA3C04325
:1039F0000AF1080AC00721D03CE0DAF8000080078D
:103A0000E8D5D5F8B410C1F30120032858460DD0ED
:103A1000016821F47C510160B5F8B420DAF8001097
:103A2000C2F30B021143CAF80010DDE7C84A03686D
:103A300002EA111223F47C511143ECE7E86F1828D5
:103A400016D005DCA0B1082808D0102804D10AE05F
:103A500020280DD028280BD001240AE0019801214C
:103A600001F0DEFE03E00098012101F069FF044649
:103A700064B126462878C04380071ED4A86F062864
:103A800019D2DFE800F0160C11161616EA6FDAF8F4
:103A9000001021F038011143CAF80010EAE701983C
:103AA000012101F0BDFE03E00098012101F048FF73
:103AB00004467CB100E0012426462878C043400734
:103AC0001FD4D5F89400062819D2DFE800F0160CB0
:103AD00011161616AA6FDAF8001021F0070111432B
:103AE000CAF80010E9E70198012101F099FE03E00E
:103AF0000098012101F024FF0446A4B100E0012454
:103B000026462878C04380062BD4D5F89000B0F123
:103B1000405F24D011DC10B3B0F1805F15D0B0F15C
:103B2000005F10D116E0D5F89420D9F8001021F0EC
:103B300007011143C9F80010E3E7B0F1804F0ED040
:103B4000B0F1A04F0BD001240AE00198002101F050
:103B500067FE03E00098022101F0F2FE044694B1F2
:103B600026462878C04340062BD4D5F89C00B0F5F3
:103B7000406F24D011DC10B3B0F5806F15D0B0F5D4
:103B8000006F10D116E0D5F89020DAF8001021F07F
:103B9000E0411143CAF80010E3E7B0F5805F0ED0B2
:103BA000B0F5A05F0BD001240AE00198002101F0DC
:103BB00037FE03E00098022101F0C2FE044694B1F2
:103BC00026462878C04300062BD4D5F8A000B0F5CF
:103BD000C04F24D011DC10B3B0F5005F15D0B0F5A4
:103BE000804F10D116E0D5F89C20D9F8001021F4B0
:103BF000E0511143C9F80010E3E7B0F5004F0ED0D3
:103C0000B0F5204F0BD001240AE00198002101F00B
:103C100007FE03E00098022101F092FE044654B131
:103C200026462878C04300071ED4D5F88400B0F596
:103C3000805F0AD00FE0D5F8A020D9F8001021F459
:103C400060411143C9F80010EBE70098022101F030
:103C500077FE00B10126D5F88420DAF8001021F4AF
:103C600040511143CAF800102878C043C00613D44D
:103C7000D5F89800B0F5807F05D10098022101F0B9
:103C80005FFE00B10126D5F89820D9F8001021F484
:103C900040711143C9F800102868C043000316D4CE
:103CA000D5F8A40038B1B0F5803F09D0B0F5003F99
:103CB0000BD001240AE00198002101F0B1FD03E0DE
:103CC0000098022101F03CFE04468CB1264628688B
:103CD000C043400322D4D5F88800B0F5801F11D02E
:103CE000B0F5001F13D0B0F5401F15D0012414E02B
:103CF000D5F8A420D9F8001021F440311143C9F8B7
:103D00000010E4E7386840F40030386004E00098C0
:103D1000012101F015FE04465CB126462868C04327
:103D2000C00323D4286DA8B1B0F5803F17D001247B
:103D30001BE0D5F88820DAF8001021F44011114377
:103D4000CAF80010EAE700004C4402580048025844
:103D5000CFFFFF00386840F40030386004E001987D
:103D6000022101F05DFD0446E4B126462868C04307
:103D7000800005D40098022101F0E2FD00B1012687
:103D80002868C04380031BD4D5F88000B0B1B0F5DB
:103D9000807F0FD0B0F5007F10D0B0F5407F0DD000
:103DA00001240CE05A482A6D016821F48031114346
:103DB0000160DBE7386840F400303860ECB3264639
:103DC0002868C043C00207D46A6FD8F8001021F0F9
:103DD00000411143C8F800102868C043C00008D44F
:103DE000D5F8B820DBF8001021F480411143CBF85E
:103DF00000102868C043800207D4EA6ED8F800108B
:103E000021F080711143C8F800102868C0434000B9
:103E10000CD4DBF8001021F40041CBF80010DBF8E3
:103E20000010D5F8BC201143CBF800102868C0431F
:103E300008D437486A6D016800E018E021F040516D
:103E4000114301602868C043000208D4D5F88C20D3
:103E5000DAF8001021F440011143CAF80010287963
:103E60000024C04300F0010020430AD00FE0D5F841
:103E70008020DAF8001021F440711143CAF80010D4
:103E80009EE70198002101F0CBFC00B1064628799D
:103E9000C04300F00200204305D10198012101F048
:103EA000BFFC00B106462879C04300F0040020435F
:103EB00005D10198022101F0B3FC00B10646287932
:103EC000C04300F00800204305D10098002101F014
:103ED00037FD00B106462879C04300F010002043AA
:103EE00005D10098012101F02BFD00B1064628798B
:103EF000C04300F02000044304D10098022101F0E7
:103F00001FFD00B916B10120BDE8FE8F0020FBE7C0
:103F10004C4402582DE9F05F04000F467ED0DFF8D4
:103F20003882D8F8000000F00F00B8420CD2D8F860
:103F3000001021F00F013943C8F80010D8F8000034
:103F400000F00F00B84269D12078844D40070AD5AF
:103F50002069296801F07001884204D9296821F09C
:103F600070010143296020787C4E361D00070AD578
:103F70006069316801F07001884204D9316821F02C
:103F80007001014331602078C0060AD5A06931680C
:103F900001F4E061884204D9316821F4E061014311
:103FA00031602078DFF8B4B180060BF1080B0CD536
:103FB000E1695846DBF8002002F07002914204D912
:103FC000026822F070020A430260207880070AD556
:103FD000E068296801F00F01884204D9296821F0BE
:103FE0000F01014329602078C0073ED05B49A268D9
:103FF0002868183920F4706010432860606802282F
:1040000018D0032819D00968012819D049070029B8
:104010004ADADFF848A1AAF1080A00E044E0DAF839
:10402000002022F007020243CAF80020FEF770FCCD
:10403000814612E009688903E9E709688901E6E732
:10404000C905E4E7FEF764FCA0EB090141F2883002
:10405000814202D90320BDE8F09F6168DAF80000D0
:1040600000F03800B0EBC10FECD1207880070AD502
:10407000E068296801F00F01884204D2296821F024
:104080000F0101432960D8F80010404601F00F01EC
:10409000B9420BD9016821F00F0139430160006872
:1040A00000F00F00B84201D00120D4E7207840078B
:1040B0000AD52069296801F07001884204D2296874
:1040C00021F0700101432960207800070AD560695A
:1040D000316801F07001884204D2316821F070012A
:1040E000014331602078C0060AD5A069316801F427
:1040F000E061884204D2316821F4E061014331601B
:10410000207880060CD5E1695846DBF8002002F0E3
:104110007002914204D2026822F070020A430260E7
:1041200000F06CF80E492A682B68C2F3032203F0F2
:104130000F038A5CC95C02F01F0201F01F01D0402E
:10414000084A20FA01F11160074908600748006831
:10415000BDE8F05FFEF7C4BD0020005218440258CD
:104160003C700008A00000249C000024940000245F
:1041700030B500F043F80B4A0B490C4B1568146836
:10418000C5F3032204F00F048A5C095D02F01F02EC
:1041900001F01F01D040064A20FA01F119601060B9
:1041A000084630BD184402583C700008A0000024A6
:1041B0009C00002400B5FFF7DBFF05490968054AAC
:1041C000C1F30211515C01F01F01C84000BD0000A5
:1041D0001C4402583C70000800B5FFF7C9FF0549B0
:1041E0000968054AC1F30221515C01F01F01C84072
:1041F00000BD00001C4402583C700008454970B5E1
:1042000045480968434B103B11F0380208D00111B2
:10421000082A03D0102A0BD0182A0BD0084670BDEC
:1042200019688906FBD51968C1F3C101C84070BD82
:104230003A4870BD3749374D18310C1D24350A688E
:10424000096826682D6802F0030406F00102C1F334
:104250000511C5F3CC0515FB02F200EE102AB8EEED
:10426000400AE9B32F4ADFED2E0AB7EE001A6CB10F
:10427000DFED2D1A012C01D0022C43D002EE101AD2
:104280001068F8EE422A81EEA22A1EE01C68A406FD
:1042900011D51B6801EE901A1168C3F3C103F8EE43
:1042A000612AD84001EE900AC1F30800F8EE611AC5
:1042B00081EEA22A0BE001EE901ADFED1C2A00BF6E
:1042C000F8EE611A106882EEA12AC0F3080001EE30
:1042D000900AF8EE611A40EE201A31EE810A00E0F1
:1042E00015E022EE000A1068C0F34620401C00EEE4
:1042F000900AF8EE600A80EE201ABCEEC10A10EEB9
:10430000100A70BD01EE901ADFED092AD8E70020EF
:1043100070BD0000104402580090D00340787D0129
:1043200000000039304402580024744A0024744CC0
:1043300020BCBE4B2DE9F05F04007DD0FF4F2078FC
:10434000FE4D1837DFF8F493103DC00748D0D9F878
:104350000000396800F03800102815D0182803D163
:1043600001F0030002280FD06068B0F5803F12D042
:1043700010B1B0F5A02F18D0286820F48030286044
:10438000286820F4802009E02868800328D5606828
:104390000028D2D024E0286840F48030286060688B
:1043A00088B1FEF7B5FA064609E0286840F4802097
:1043B0002860F0E7FEF7ACFA801B64286FD8286805
:1043C0008003F7D50CE0FEF7A3FA064605E000BF30
:1043D000FEF79EFA801B6428F0D828688003F7D483
:1043E000207841F20308D54E0C3E800769D5D9F8F4
:1043F0000000396810F038000ED0182801D1880765
:104400000AD0E06890B3296821F0190101432960BE
:10441000FEF77EFA824631E02868400702D5E06860
:1044200000288AD0E168286820F019000843286035
:10443000FEF76EFA824607E0DFE000BFFEF768FA9B
:10444000A0EB0A000228B9D828684007F6D500BFBB
:10445000FEF758FA40451BD82069402812D0316831
:1044600021F47C3141EA003030602AE018E000BFDE
:10447000FEF74EFAA0EB0A0002289FD828684007F2
:10448000F6D5E5E7306820F47C3040F40030EBE707
:10449000207C316821F0FE4141EA0060E4E70DE153
:1044A000286820F001002860FEF732FA824605E015
:1044B000FEF72EFAA0EB0A0002288DD828684007E4
:1044C000F6D42078C0065DD5D9F80000DFF86CB2CC
:1044D000396800F03800ABF1040B082810D0182818
:1044E00003D101F0030001280AD0E0690028286800
:1044F00038D040F080002860FEF70AFA824623E0B8
:104500002868C00523D5E069802876D11FE0206A9D
:10451000202821D0316821F0F84141EA80603060E4
:1045200030E000BF94F82010DBF8002022F07C522D
:1045300042EA0161CBF8001024E000BFFEF7E8F981
:10454000A0EB0A00022898D82868C005F6D5FEF727
:10455000D9F94045E6D8DAE7306820F0F84040F075
:104560008040DCE720F080002860FEF7D1F90646A5
:1045700005E000BFFEF7CCF9801B02289DD8286813
:10458000C005F7D42078000729D56C4861696430EC
:1045900000298046016811D041F001010160FEF759
:1045A000B7F9064605E000BFFEF7B2F9801B022806
:1045B000C9D8D8F800008007F6D510E021F0010135
:1045C0000160FEF7A5F9064605E000BFFEF7A0F979
:1045D000801B022872D8D8F800008007F6D4207813
:1045E000800623D5A0690028286810D040F48050A8
:1045F0002860FEF78DF9064605E036E1FEF788F9FA
:10460000801B02285AD828688004F7D50EE020F4D1
:1046100080502860FEF77CF9064604E0FEF778F942
:10462000801B02284AD828688004F7D420784007E5
:104630004FD5DFF80C81D8F8001041F48071C8F82C
:104640000010FEF765F9064605E000BFFEF760F9C9
:10465000801B642832D8D8F80000C005F6D5374E44
:10466000A068603601280AD008B1052813D0306848
:1046700020F001003060306820F0040002E0306873
:1046800040F001003060A06841F2883A90B1FEF736
:104690003FF980460AE0306840F004003060EEE701
:1046A000FEF736F9A0EB0801514507D830688007BE
:1046B000F6D50EE0FEF72CF9804607E084E000BF57
:1046C000FEF726F9A0EB080151457DD83068800738
:1046D000F6D4606AB0B3DFF86480D9F8001008F14E
:1046E00020084FF6F87B08F10409C1F3C201032941
:1046F000A8F1040A69D00228286820F08070286098
:1047000003D0FEF705F9044684E0FEF701F90646FA
:1047100005E000BFFEF7FCF8801B022877D8286868
:104720008001F7D4E26A40F2F331386854F8283F48
:10473000884340EA02101843386004E010440258ED
:1047400000480258B5E0217B434622894FF4FE0C15
:10475000208A4FF0FE474902267D521E401EA1F5D9
:104760000071C2F308088AB2761E0CEA004042EAE1
:1047700008020243504607EA06610A431A60DAF863
:10478000002022F00102CAF80020D9F80020266A91
:1047900022EA0B0242EAC602C9F80020DAF8001049
:1047A000A26921F00C011143CAF800100168E26906
:1047B00021F0020111430160016841F48031016080
:1047C000016841F4003101E021E027E00160016867
:1047D00041F480210160016841F001010160286815
:1047E00040F080702860FEF793F8044605E000BFB3
:1047F000FEF78EF8001B022809D828688001F7D53B
:1048000057E000BFFEF784F8001B022802D90320FE
:10481000BDE8F09F28688001F4D44AE03968012897
:10482000D8F8000021D0A26A01F0030393421CD102
:10483000E26AC1F305118A4217D1216BC0F3080265
:10484000491E8A4211D1616BC0F34622491E914232
:104850000BD1A16BC0F30642491E914205D1E16B19
:10486000C0F30660491E814201D00120D0E7A16C4F
:104870004E46D9F80000C0F3CC00814219D0DAF8D6
:104880000000554620F00100CAF80000FEF740F88D
:104890004FEA0007FEF73CF8B842FBD0A26C306844
:1048A00020EA0B0040EAC2003060286840F00100B6
:1048B00028600020ACE7401EB0F1807F10B501D326
:1048C000012010BD4FF0E02460610F21601702F05D
:1048D00013F80020A0610721216110BDF0B590F808
:1048E0003C20012A3BD01F4E012480F83C4002228C
:1048F00080F83D2002681C4D5368B242D2F808C0CF
:1049000001D0AA4203D14F6823F470033B430F68E0
:1049100023F070031F4357600268B24213D0B2F114
:10492000804F10D0114B9A420DD0114B9A420AD0B1
:10493000104B9A4207D0AA4205D00F4B9A4202D0A0
:104940000E4B9A4204D189682CF080031943916080
:10495000002180F83D4080F83C100846F0BD022060
:10496000F0BD0000000001400004014000040040D0
:1049700000080040000C00400018004000400140CA
:1049800010B5040003D094F83D0010B107E00120F9
:1049900010BD002084F83C00204600F023F80220DF
:1049A00084F83D002068211D01F026FA012084F8DA
:1049B000480084F83E0084F83F0084F8400084F802
:1049C000410084F8420084F8430084F8440084F8ED
:1049D000450084F8460084F8470084F83D00002034
:1049E00010BD000008B50068B0F1804F08D105483F
:1049F000016841F001010160006800F001000090D1
:104A000008BD0000E844025870B5044690F83C0028
:104A10000025012814D03A4B012684F83C6002207E
:104A200084F83D0022689068184020F47F40906030
:104A3000086870282FD010DC10F00F0F03D022E090
:104A40004FF0020070BD4FEA2012072A1BD2DFE8A8
:104A500002F0535353534B394100B0F1101F4BD068
:104A600009DCB0F5805F0FD0B0F5005F1ED0B0F567
:104A7000801F08D140E0A0F5801120393CD01029DA
:104A80003AD0202938D0012584F83D60002084F8F0
:104A90003C00284670BD4A682068D1E9021301F045
:104AA00020FA2068816841F0770109E04A682068AF
:104AB000D1E9021301F015FA2068816841F48041C0
:104AC0008160E1E7CA684968206801F0B7FB2068A7
:104AD000502106E0CA684968206801F0C0FB2068E0
:104AE000602101F007FACFE7CA684968206801F041
:104AF000A5FB20684021F4E7226801461046F0E754
:104B000088FFCEFF10B586B0044614216846FBF737
:104B100017FC2068B0F1804F15D10C48016841F0B6
:104B20000101016000680123072100F001000590E8
:104B30000020009102226946CDE90120CDE903035E
:104B40000348FDF7C3FD06B010BD0000E044025865
:104B50000000025870B5044690F83C0000260D464F
:104B600001280BD0012084F83C000C2A4AD007DC35
:104B700082B1042A20D0082A06D131E0022070BD7B
:104B8000102A53D0142A63D00126002084F83C0058
:104B9000304670BD206801F0B7F92068816941F0A6
:104BA000080181612068816921F004018161206828
:104BB0002A698169114311E0206801F0F7F9206842
:104BC000816941F4006181612068816921F480611B
:104BD000816120682969826942EA01218161D4E703
:104BE000206801F02FFA2068C16941F00801C16115
:104BF0002068C16921F00401C16120682A69C16986
:104C0000114311E0206801F069FA2068C16941F49C
:104C10000061C1612068C16921F48061C1612068BF
:104C20002969C26942EA0121C161AEE7206801F049
:104C300091FA2068416D41F0080141652068416D9D
:104C400021F00401416520682A69416D114311E09A
:104C5000206801F0B9FA2068416D41F400614165B6
:104C60002068416D21F48061416520682969426DA9
:104C700042EA0121416588E710B5040003D094F8A9
:104C80003D0010B107E0012010BD002084F83C0079
:104C9000204600F022F8022084F83D002068211D03
:104CA00001F0AAF8012084F8480084F83E0084F856
:104CB0003F0084F8400084F8410084F8420084F802
:104CC000430084F8440084F8450084F8460084F8E2
:104CD000470084F83D00002010BD704730B5044601
:104CE0004FF0020269B1042912D0082917D00C290B
:104CF0001CD0102921D094F84300012824D0012091
:104D000030BD94F83E000128F9D184F83E201DE022
:104D100094F83F000128F2D184F83F2016E094F87F
:104D200040000128EBD184F840200FE094F84100C6
:104D30000128E4D184F8412008E094F842000128D9
:104D4000DDD184F8422001E084F84320012220686C
:104D500001F0BAF81B4B20681B491C4A984209D045
:104D6000884207D0904205D0194DA84202D0194D73
:104D7000A84203D1456C45F400454564206898423B
:104D800012D0B0F1804F0FD0134B98420CD0134B80
:104D9000984209D0124B984206D0884204D011495B
:104DA000884201D0904207D181680F4A11400629FC
:104DB00006D0B1F5803F03D0016841F001010160E8
:104DC000002030BD000001400004014000400140CF
:104DD0000044014000480140000400400008004039
:104DE000000C0040001800400700010030B590F8AA
:104DF0008410012918D0012280F884202421C0F8D1
:104E000088100022202401680B680D6823F00053ED
:104E100025F001050D60426601680B60C0F888400E
:104E200080F88420104630BD022030BD70B50446A5
:104E300090F8840001281DD0012284F884202420C9
:104E4000C4F8880020680568026822F00102026048
:104E50002068826822F060620A438260204601F086
:104E600011FA2268202100201560C4F8881084F807
:104E7000840070BD022070BD70B5044690F88400B7
:104E800001281DD0012284F884202420C4F8880041
:104E900020680568026822F00102026020688268CA
:104EA00022F060420A438260204601F0EBF922685A
:104EB000202100201560C4F8881084F8840070BD9B
:104EC000022070BD10B5040003D0D4F8880010B1E2
:104ED00007E0012010BD002084F88400204600F087
:104EE00027F82420C4F888002068016821F0010117
:104EF0000160A06A10B1204601F0E6F9204601F0F9
:104F0000C7FA0128E6D02068416821F49041416049
:104F10002068816821F02A0181602068016841F0E1
:104F2000010101602046BDE8104001F031BA0000E7
:104F300010B5B6B00446142130A8FBF701FAC02121
:104F40006846FBF7FDF91949206888422BD10020FB
:104F50001F9001210446CDE900106846FEF704FBCE
:104F600008B1FBF79FFF1248016841F01001016092
:104F7000006800F0100035900D481038016841F0CD
:104F800002010160006830AB022100F002003590A0
:104F90004FF44040042283E81300064830A9CDE9CD
:104FA0003342FDF793FB36B010BD00000010014006
:104FB000F044025800040258FEE701688A69D243AF
:104FC000920701D400228A6200688169C943C90737
:104FD00003D0816941F00101816170472DE9F047FB
:104FE000044600680026894617464FF020083546DB
:104FF0008169C90641D51021C1612FE0B9F1FF3F98
:105000002CD0FDF785FCC11B494502D8B9F1000F32
:1050100024D12068426894F84210836902F48042E7
:10502000DB431B0415D4B2F5804F12D0202910D0D9
:10503000416841F480414160FDF76AFC074608E0A1
:10504000FDF766FCC01B192803D9012645F0200591
:1050500004E020688069C0438006F1D4206880693C
:10506000C043800602D5002EC8D003E016B92168DF
:10507000C1F81C80012645F0040521688869C20535
:1050800005D54FF48072CA6145F00105012641053E
:105090000AD5216880054FF4806245F00805CA6191
:1050A0004FF0010602D40AE0800507D520680126EA
:1050B0004FF4007145F00205C16100E08EB1204659
:1050C000FFF77BFF20680021074F43683B404360A8
:1050D000606C2843606484F8418084F8421084F84E
:1050E00040103046BDE8F08700E800FE2DE9F843A7
:1050F000174604461548DAB2DDE908981E460090C6
:105100000023204600F024F842464946204600F09D
:10511000A1F8B8B9012EFDB208D02068390A816221
:1051200042464946204600F095F858B92068856205
:10513000002240214B462046CDF8008000F020F8A8
:10514000002800D00120BDE8F88300000020008086
:1051500070B50068C1F3090141EA0241074D049CA2
:1051600019434FF480664268214306EA54532B43A7
:105170009A4321F000410A43426070BDFF63FF0380
:105180002DE9F0411D4617460E460446DDF818800D
:1051900028E0424629462046FFF720FF10B10120B3
:1051A000BDE8F081681C1DD0FDF7B2FBA0EB080044
:1051B000A84200D8B5B92068806936EA00000FD04F
:1051C0000020B8420ED1626C002084F840002021FB
:1051D00042F02002626484F8411084F84200DEE765
:1051E0000120EEE72068806936EA000004D0002044
:1051F000B842CED00020D3E70120F9E770B51646BB
:105200000D4604461FE0324629462046FFF7E6FEDB
:1052100008B1012070BDFDF77BFB801BA84200D8C0
:105220008DB920688069C04380060CD5626C00206F
:1052300084F84000202142F02002626484F841108A
:1052400084F84200E5E720688069C0438006DAD42C
:10525000002070BD70B516460D46044621E032466A
:1052600029462046FFF7BAFE08B1012070BD681C30
:1052700017D0FDF74DFB801BA84200D88DB92068E0
:105280008069C04380070CD5626C002084F8400020
:10529000202142F02002626484F8411084F8420028
:1052A000E3E720688069C0438007D8D4002070BD40
:1052B0008068C0F3C00070478068C0F3800070470A
:1052C0008068C0F380007047C06810F4406F01D060
:1052D000002070470120704710B5042404EAD1541F
:1052E0000723C1F3045120448B408A40416999430C
:1052F0001143416110BD00004FF0E021244BDFED70
:10530000251ADFED252A8969F0EE400A93ED001A8F
:10531000826881EE210A8A4205D9521A01EE102ACA
:10532000B8EE411A0BE001EE901A02EE102AF8EEE8
:10533000611AB8EE422A31EE611A31EE021AC1EE5C
:10534000001A21EEA20AB5EEC00AF1EE10FA04D955
:1053500010EE102A114B9A4205DD8160C0ED010A62
:10536000B0EE600A7047D0ED001AD0ED012AB7EE1A
:10537000002A31EE800A816081EE801A22EE810AD5
:1053800032EE411A01EE200A80ED010A704700005A
:105390008800002400007A446F12833A0AD7A33BA6
:1053A00070B50D46044612482DED028BB0EE608AB2
:1053B000F0EE408AFBF79EFD0E48F0EE400A90EDBD
:1053C000040A2046B8EEC01AB0EE680A01EE600A80
:1053D00000F080F9B0EE481AF1EE480A01F04CFDF9
:1053E000BDEC028B2846BDE8704000F0EDBB00002C
:1053F000A80000243000002430B58BB0002468469B
:105400001C21079408940994FAF79AFF2148012275
:105410001F4904250223C0E900140561C0E90242C6
:10542000047544758361047744628462C4620463D2
:10543000446380F83840FCF77FF808B1FBF732FD91
:10544000144807A90794FBF7F3FD08B1FBF72AFD01
:105450001148062140F2FF7203928DE813000D48B7
:105460006946CDE904548DF81940FBF775FE08B183
:10547000FBF718FD0C210948CDE9000105486946F4
:10548000FBF76AFE002801D0FBF70CFD0BB030BD26
:10549000002002405C0100241000C0100800900CA5
:1054A000094808B5016841F0010101600068002267
:1054B000114600F0010000900B20FDF79BFCBDE8B9
:1054C00008400B20FDF788BCD84402580D4808B5A9
:1054D000016841F001010160016801F001010091E2
:1054E000016841F004010160016801F004010091CC
:1054F000016841F002010160006800F002000090C4
:1055000008BD0000E04402581348002110B5114CBA
:105510000123124A0460C0E90121C0E9033141615D
:105520008161C1610162FDF74FFA08B1FBF7BAFC76
:1055300009480021FDF7F2F908B1FBF7B3FC064872
:105540000021FDF717FA002803D0BDE81040FBF753
:10555000A9BC10BD0058004038020024DB3FB00059
:1055600010B58EB000241C21009407A80194029469
:105570000394049405940694FAF7E2FE254842F653
:10558000DF614FF080438022C0E90034C0E902416E
:1055900004618261FFF7F4F908B1FBF783FC4FF473
:1055A000805000901B486946FFF72EFA08B1FBF7C0
:1055B00079FC1848FFF760FB08B1FBF773FC15484E
:1055C00004A904940694FFF789F908B1FBF76AFC73
:1055D0006020CDE907040F48002207A909940B9425
:1055E000FFF7B8FA08B1FBF75DFC0A48042207A9E7
:1055F000FFF7B0FA08B1FBF755FC0648082207A9E7
:10560000FFF7A8FA08B1FBF74DFC0248FFF77AFA5A
:105610000EB010BD8C0200241848002110B5164CA5
:105620000C224FF4E1330460C0E90131C160C0E9EC
:1056300004128161C161016241628162FFF742FC33
:1056400008B1FBF72FFC0D480021FFF715FC08B14E
:10565000FBF728FC09480021FFF7E8FB08B1FBF73E
:1056600021FC0648FFF7C2FB002803D0BDE810402C
:10567000FBF718BC10BD000000100140D802002448
:10568000FEE7000030B587B014216846FAF758FEEF
:105690000D48016841F00101016000684FF4807419
:1056A0000A4D022100F00100059001200391694696
:1056B000CDE900402846FDF709F801222146284699
:1056C000FDF71AF907B030BDE04402580000025857
:1056D000FEE700004FF0E0212F4BF0EE401A00B53E
:1056E00089699FED2E0A9FED2E3B93ED001A82698A
:1056F000C1EE000A8A4205D28A1A00EE102AB8EEDC
:10570000400A0BE002EE102A00EE101AB8EE422A10
:10571000B8EE400A31EE421A31EE000AF6EE002AE7
:1057200080EE201AB7EEC10A90ED001A20EE030BAE
:1057300021EE213AB1EE041AB7EEC02BD0ED010AEA
:1057400090ED040A60EEA20A60EE820A00EEA10A61
:10575000F9EE040A01F080FB90ED031AF0EE402A06
:1057600090ED020A31EEC11A73EE220A20EE011A00
:1057700081EE020AB1EE041A30EE800AF9EE040A54
:1057800001F06AFBC0ED031AC0ED042AF0EE400AF6
:105790008161C0ED050A00BD8800002400007A4444
:1057A000FCA9F1D24D62503F80EC030A0021DFEDED
:1057B000051A8161C0ED031AC0ED041AC0ED051A87
:1057C0007047000000000000F7EE000A044830EEC9
:1057D000600A0168BCEEC00A10EE100A4863704708
:1057E0008C020024F7EE000A044830EE600A0168DB
:1057F000BCEEC00A10EE100A886370478C020024C9
:10580000F7EE000A044830EE600A0168BCEEC00AF8
:1058100010EE100AC86370478C0200247047000025
:105820002DE9F047454D044689464FF0000A2868A7
:10583000C04380070AD0414E283E306820F0806087
:105840003060FDF765F80746B04608E00120BDE886
:10585000F08700BFFDF75CF8C01B022867D8D8F8B6
:1058600000000001F6D4206829684FF4FE0721F4F7
:105870007C313E0241EA00302860207AA389B4F8E6
:1058800004C040022D4D2D495B1E227CACF1010C61
:105890001035091DA0F5007080B2521ECCF3080C23
:1058A00007EA034340EA0C00184306EA0262104389
:1058B00028600868626920F0C000104308600A6828
:1058C000A06922F0200202430A60281D0A6822F023
:1058D00010020A6002684FF6F873E4699A4342EADC
:1058E000C40202600868B9F1000F40F010020A60BB
:1058F00011D00868B9F1010F11D040F40010086010
:10590000D8F80000444640F08060C8F80000FCF77A
:10591000FFFF05460DE0086840F40020EFE740F483
:105920008010ECE7FCF7F4FF401B022801D90320AC
:105930008DE720680001F5D5504688E728440258D5
:105940002DE9F047454D044689464FF0000A286886
:10595000C04380070AD0414E283E306820F0805076
:105960003060FCF7D5FF0746B04608E00120BDE8EF
:10597000F08700BFFCF7CCFFC01B022867D8D8F81F
:1059800000008000F6D4208829684FF4FE0721F03B
:105990007C713E0241EA00502860207AA389B4F865
:1059A00004C040022D4D2D495B1E227CACF1010C40
:1059B0001835091DA0F5007080B2521ECCF3080CFA
:1059C00007EA034340EA0C00184306EA0262104368
:1059D00028600868626920F44060104308600A6823
:1059E000A06922F4007202430A60281D0A6822F4AA
:1059F00080720A6002684FF6F873E4699A4342EADB
:105A0000C40202600868B9F1000F40F480720A60B5
:105A100011D00868B9F1010F11D040F08070086012
:105A2000D8F80000444640F08050C8F80000FCF769
:105A30006FFF05460DE0086840F48000EFE740F492
:105A40000000ECE7FCF764FF401B022801D90320AB
:105A50008DE720688000F5D5504688E72844025835
:105A60007047000010B504462DED028BF0EE418A20
:105A7000B0EE408AB0EE680A01F050F8F1EE480A44
:105A800020EE200A84ED040AB0EE680A00F046FF1A
:105A900060EE080A9FED131A1348C4ED050A94ED51
:105AA000040A90ED012AF6EE001AB0EE403AF0EE4C
:105AB000402A10EE813A40EE812A22EE211A02EEAF
:105AC000210A201D63EE210A02EEE11A42EE210AAC
:105AD00080EC030A2046BDEC028BBDE8104000F0CC
